:100000000C942A000C947D010C9447000C9447003A
:100010000C9447000C9447000C9447000C94470044
:100020000C9447000C9447000C9447000C94470034
:100030000C9447000C9447000C9447000C94470024
:100040000C9447000C9447000C9447000C94470014
:100050000C94470011241FBECFE5D4E0DEBFCDBF16
:1000600010E0A0E6B0E0E2E9F4E002C005900D92F5
:10007000A237B107D9F710E0A2E7B0E001C01D92A6
:10008000A639B107E1F70E94D2010C9447020C9403
:1000900000008830D1F1893090F4833061F18430F0
:1000A00028F4813011F1823020F521C0853039F1FA
:1000B000853018F1863029F18730D9F524C08D308C
:1000C00071F18E3048F48A3021F18A3000F18B30A2
:1000D00011F18C3071F521C08F3029F18F3008F18A
:1000E0008D3219F18F3529F522C089EF089580EC02
:1000F000089584EA089580EB089589E9089582E9D6
:10010000089582E8089588EF089580E8089580E9C9
:10011000089588E8089583E8089586EC089581EAB3
:10012000089586E808958EE808958FED089587EF85
:1001300008958FEF0895DF9890E067FD02C0DD9885
:1001400001C0DD9ADE98DE9A9F5F983011F0660F4D
:10015000F4CF90E087FD02C0DD9801C0DD9ADE9803
:10016000DE9A9F5F983011F0880FF4CFDF9ADF9806
:10017000089518BA88EB87BB81E58DB908951BBA3D
:1001800080EE8ABB80EF85BB14BA12BA11BA08950B
:10019000F89418BA88EB87BB81E58DB91BBA80EE5D
:1001A0008ABB80EF85BB14BA12BA11BA82E085BF50
:1001B00080E48BBF789408958FB9779BFECF779AB0
:1001C0008FB10895C49880628FB9779BFECF779ADC
:1001D0008FB16FB9779BFECF779A8FB1C49A08958C
:1001E000C4988FB9779BFECF779A3FB185E08FB9DE
:1001F000779BFECF779A2FB1932F80E0C49A30E09F
:10020000282B392BC9010895C4988FB9779BFECF4D
:10021000779A8FB1FB0107C080818FB9779BFECFA2
:10022000779A8FB131968E2F861B8417A8F3C49AC4
:100230000895C498FB0190E007C01FB8779BFECFDC
:10024000779A8FB181939F5F9417B8F3C49A0895FA
:100250001F93CF93DF93EC01162FC398C49881EEC0
:100260008FB9779BFECF779A8FB1C49A80E368E607
:1002700070E045E00E94040180EABE01412F0E9427
:10028000040180E06EE60E94E200C39ADF91CF9104
:100290001F910895C39885E38A95F1F7C49A80E089
:1002A0006EE60E94E20081E061E00E94E20082E0EE
:1002B00061E00E94E20083E063E00E94E20084E0EB
:1002C00065E10E94E20085E060E00E94E20086E0D5
:1002D00067E00E94E20081E164E00E94E20080E3C6
:1002E00068E670E045E00E9404018AE26DE670E095
:1002F00045E00E940401C39A08951F920F920FB621
:100300000F9211242F933F934F935F936F937F939B
:100310008F939F93AF93BF93EF93FF93C398C4982A
:1003200081EE8FB9779BFECF779A8FB1C49A87E021
:1003300060E10E94E20087E00E94F0009093670075
:1003400080936600809166009091670024E0969506
:1003500087952A95E1F790936700809366008091D6
:100360006600909167000E94490068E00E949B002F
:1003700088EE93E020E931E0F9013197F1F7019738
:10038000D9F7FF91EF91BF91AF919F918F917F919D
:100390006F915F914F913F912F910F900FBE0F90F2
:1003A0001F9018950F931F93CF93DF930E94C8005F
:1003B0000E944A01C0E9D1E000E41CE98091930069
:1003C0008F5F8F70809393000E94490061EF0E94BD
:1003D0009B0088E893E1FE013197F1F70197D9F787
:1003E00080E690E064E00E942801C8010197F1F7DF
:1003F00087E10E94F00090936700809366008091EF
:100400006600909167008070909394001092950020
:10041000892F0E94490062EF0E949B0088E893E1C7
:10042000FE013197F1F70197D9F78091660090911D
:100430006700807F907034E0969587953A95E1F754
:1004400090939500809394000E94490064EF0E946D
:100450009B0088E893E1FE013197F1F70197D9F706
:1004600080916600909167008F70907090939500D6
:10047000809394000E94490068EF0E949B0088E8E6
:1004800093E1FE013197F1F70197D9F797CFF894EF
:02049000FFCF9C
:100492000B0C0D0E0C100F000103050709020406D8
:0204A200080A46
:00000001FF
